{
  "_format": "hh-sol-artifact-1",
  "contractName": "Minter",
  "sourceName": "contracts/minter.sol",
  "abi": [
    {
      "inputs": [],
      "stateMutability": "nonpayable",
      "type": "constructor"
    },
    {
      "anonymous": false,
      "inputs": [
        {
          "indexed": true,
          "internalType": "address",
          "name": "owner",
          "type": "address"
        },
        {
          "indexed": true,
          "internalType": "address",
          "name": "approved",
          "type": "address"
        },
        {
          "indexed": true,
          "internalType": "uint256",
          "name": "tokenId",
          "type": "uint256"
        }
      ],
      "name": "Approval",
      "type": "event"
    },
    {
      "anonymous": false,
      "inputs": [
        {
          "indexed": true,
          "internalType": "address",
          "name": "owner",
          "type": "address"
        },
        {
          "indexed": true,
          "internalType": "address",
          "name": "operator",
          "type": "address"
        },
        {
          "indexed": false,
          "internalType": "bool",
          "name": "approved",
          "type": "bool"
        }
      ],
      "name": "ApprovalForAll",
      "type": "event"
    },
    {
      "anonymous": false,
      "inputs": [
        {
          "indexed": false,
          "internalType": "address",
          "name": "sender",
          "type": "address"
        },
        {
          "indexed": false,
          "internalType": "uint256",
          "name": "tokenId",
          "type": "uint256"
        }
      ],
      "name": "NewEpicNFTMinted",
      "type": "event"
    },
    {
      "anonymous": false,
      "inputs": [
        {
          "indexed": true,
          "internalType": "address",
          "name": "from",
          "type": "address"
        },
        {
          "indexed": true,
          "internalType": "address",
          "name": "to",
          "type": "address"
        },
        {
          "indexed": true,
          "internalType": "uint256",
          "name": "tokenId",
          "type": "uint256"
        }
      ],
      "name": "Transfer",
      "type": "event"
    },
    {
      "inputs": [
        {
          "internalType": "address",
          "name": "to",
          "type": "address"
        },
        {
          "internalType": "uint256",
          "name": "tokenId",
          "type": "uint256"
        }
      ],
      "name": "approve",
      "outputs": [],
      "stateMutability": "nonpayable",
      "type": "function"
    },
    {
      "inputs": [
        {
          "internalType": "address",
          "name": "owner",
          "type": "address"
        }
      ],
      "name": "balanceOf",
      "outputs": [
        {
          "internalType": "uint256",
          "name": "",
          "type": "uint256"
        }
      ],
      "stateMutability": "view",
      "type": "function"
    },
    {
      "inputs": [
        {
          "internalType": "uint256",
          "name": "tokenId",
          "type": "uint256"
        }
      ],
      "name": "getApproved",
      "outputs": [
        {
          "internalType": "address",
          "name": "",
          "type": "address"
        }
      ],
      "stateMutability": "view",
      "type": "function"
    },
    {
      "inputs": [
        {
          "internalType": "address",
          "name": "owner",
          "type": "address"
        },
        {
          "internalType": "address",
          "name": "operator",
          "type": "address"
        }
      ],
      "name": "isApprovedForAll",
      "outputs": [
        {
          "internalType": "bool",
          "name": "",
          "type": "bool"
        }
      ],
      "stateMutability": "view",
      "type": "function"
    },
    {
      "inputs": [],
      "name": "mintNFT",
      "outputs": [],
      "stateMutability": "nonpayable",
      "type": "function"
    },
    {
      "inputs": [],
      "name": "name",
      "outputs": [
        {
          "internalType": "string",
          "name": "",
          "type": "string"
        }
      ],
      "stateMutability": "view",
      "type": "function"
    },
    {
      "inputs": [
        {
          "internalType": "uint256",
          "name": "tokenId",
          "type": "uint256"
        }
      ],
      "name": "ownerOf",
      "outputs": [
        {
          "internalType": "address",
          "name": "",
          "type": "address"
        }
      ],
      "stateMutability": "view",
      "type": "function"
    },
    {
      "inputs": [
        {
          "internalType": "uint256",
          "name": "tokenId",
          "type": "uint256"
        }
      ],
      "name": "pickRandomFirstWord",
      "outputs": [
        {
          "internalType": "string",
          "name": "",
          "type": "string"
        }
      ],
      "stateMutability": "view",
      "type": "function"
    },
    {
      "inputs": [
        {
          "internalType": "uint256",
          "name": "tokenId",
          "type": "uint256"
        }
      ],
      "name": "pickRandomSecondWord",
      "outputs": [
        {
          "internalType": "string",
          "name": "",
          "type": "string"
        }
      ],
      "stateMutability": "view",
      "type": "function"
    },
    {
      "inputs": [
        {
          "internalType": "uint256",
          "name": "tokenId",
          "type": "uint256"
        }
      ],
      "name": "pickRandomThirdWord",
      "outputs": [
        {
          "internalType": "string",
          "name": "",
          "type": "string"
        }
      ],
      "stateMutability": "view",
      "type": "function"
    },
    {
      "inputs": [
        {
          "internalType": "address",
          "name": "from",
          "type": "address"
        },
        {
          "internalType": "address",
          "name": "to",
          "type": "address"
        },
        {
          "internalType": "uint256",
          "name": "tokenId",
          "type": "uint256"
        }
      ],
      "name": "safeTransferFrom",
      "outputs": [],
      "stateMutability": "nonpayable",
      "type": "function"
    },
    {
      "inputs": [
        {
          "internalType": "address",
          "name": "from",
          "type": "address"
        },
        {
          "internalType": "address",
          "name": "to",
          "type": "address"
        },
        {
          "internalType": "uint256",
          "name": "tokenId",
          "type": "uint256"
        },
        {
          "internalType": "bytes",
          "name": "data",
          "type": "bytes"
        }
      ],
      "name": "safeTransferFrom",
      "outputs": [],
      "stateMutability": "nonpayable",
      "type": "function"
    },
    {
      "inputs": [
        {
          "internalType": "address",
          "name": "operator",
          "type": "address"
        },
        {
          "internalType": "bool",
          "name": "approved",
          "type": "bool"
        }
      ],
      "name": "setApprovalForAll",
      "outputs": [],
      "stateMutability": "nonpayable",
      "type": "function"
    },
    {
      "inputs": [
        {
          "internalType": "bytes4",
          "name": "interfaceId",
          "type": "bytes4"
        }
      ],
      "name": "supportsInterface",
      "outputs": [
        {
          "internalType": "bool",
          "name": "",
          "type": "bool"
        }
      ],
      "stateMutability": "view",
      "type": "function"
    },
    {
      "inputs": [],
      "name": "symbol",
      "outputs": [
        {
          "internalType": "string",
          "name": "",
          "type": "string"
        }
      ],
      "stateMutability": "view",
      "type": "function"
    },
    {
      "inputs": [
        {
          "internalType": "uint256",
          "name": "tokenId",
          "type": "uint256"
        }
      ],
      "name": "tokenURI",
      "outputs": [
        {
          "internalType": "string",
          "name": "",
          "type": "string"
        }
      ],
      "stateMutability": "view",
      "type": "function"
    },
    {
      "inputs": [
        {
          "internalType": "address",
          "name": "from",
          "type": "address"
        },
        {
          "internalType": "address",
          "name": "to",
          "type": "address"
        },
        {
          "internalType": "uint256",
          "name": "tokenId",
          "type": "uint256"
        }
      ],
      "name": "transferFrom",
      "outputs": [],
      "stateMutability": "nonpayable",
      "type": "function"
    }
  ],
  "bytecode": "0x608060405260405180610160016040528061012f81526020016200457a61012f913960089081620000319190620009d0565b506040518060c001604052806040518060400160405280600981526020017f6669727374576f7264000000000000000000000000000000000000000000000081525081526020016040518060400160405280600581526020017f776f72643100000000000000000000000000000000000000000000000000000081525081526020016040518060400160405280600781526020017f776f72644f6e650000000000000000000000000000000000000000000000000081525081526020016040518060400160405280600581526020017f31776f726400000000000000000000000000000000000000000000000000000081525081526020016040518060400160405280600781526020017f776f7264556e6f0000000000000000000000000000000000000000000000000081525081526020016040518060400160405280600b81526020017f7072696d617279576f72640000000000000000000000000000000000000000008152508152506009906006620001af92919062000669565b506040518060c001604052806040518060400160405280600781526020017f776f7264446f730000000000000000000000000000000000000000000000000081525081526020016040518060400160405280600781526020017f776f726454776f0000000000000000000000000000000000000000000000000081525081526020016040518060400160405280600581526020017f776f72643200000000000000000000000000000000000000000000000000000081525081526020016040518060400160405280600a81526020017f7365636f6e64576f72640000000000000000000000000000000000000000000081525081526020016040518060400160405280600d81526020017f7365636f6e64617279576f72640000000000000000000000000000000000000081525081526020016040518060400160405280600681526020017f32776f7264730000000000000000000000000000000000000000000000000000815250815250600a9060066200032d92919062000669565b506040518060c001604052806040518060400160405280600881526020017f776f72645472657300000000000000000000000000000000000000000000000081525081526020016040518060400160405280600581526020017f776f72643300000000000000000000000000000000000000000000000000000081525081526020016040518060400160405280600581526020017f776f72643300000000000000000000000000000000000000000000000000000081525081526020016040518060400160405280600c81526020017f7465727469617279576f7264000000000000000000000000000000000000000081525081526020016040518060400160405280600681526020017f33776f726473000000000000000000000000000000000000000000000000000081525081526020016040518060400160405280600881526020017f6c617374576f7264000000000000000000000000000000000000000000000000815250815250600b906006620004ab92919062000669565b50348015620004b957600080fd5b506040518060400160405280600981526020017f5371756172654e465400000000000000000000000000000000000000000000008152506040518060400160405280600681526020017f53515541524500000000000000000000000000000000000000000000000000008152508160009081620005379190620009d0565b508060019081620005499190620009d0565b505050620005976040518060400160405280601e81526020017f54686973206973206d79204e465420636f6e74726163742e20576f61682100008152506200059d60201b62000f9f1760201c565b62000b6a565b6200063d81604051602401620005b4919062000b46565b6040516020818303038152906040527f41304fac000000000000000000000000000000000000000000000000000000007bffffffffffffffffffffffffffffffffffffffffffffffffffffffff19166020820180517bffffffffffffffffffffffffffffffffffffffffffffffffffffffff83818316178352505050506200064060201b60201c565b50565b60008151905060006a636f6e736f6c652e6c6f679050602083016000808483855afa5050505050565b828054828255906000526020600020908101928215620006b6579160200282015b82811115620006b5578251829081620006a49190620009d0565b50916020019190600101906200068a565b5b509050620006c59190620006c9565b5090565b5b80821115620006ed5760008181620006e39190620006f1565b50600101620006ca565b5090565b508054620006ff90620007bf565b6000825580601f1062000713575062000734565b601f01602090049060005260206000209081019062000733919062000737565b5b50565b5b808211156200075257600081600090555060010162000738565b5090565b600081519050919050565b7f4e487b7100000000000000000000000000000000000000000000000000000000600052604160045260246000fd5b7f4e487b7100000000000000000000000000000000000000000000000000000000600052602260045260246000fd5b60006002820490506001821680620007d857607f821691505b602082108103620007ee57620007ed62000790565b5b50919050565b60008190508160005260206000209050919050565b60006020601f8301049050919050565b600082821b905092915050565b600060088302620008587fffffffffffffffffffffffffffffffffffffffffffffffffffffffffffffffff8262000819565b62000864868362000819565b95508019841693508086168417925050509392505050565b6000819050919050565b6000819050919050565b6000620008b1620008ab620008a5846200087c565b62000886565b6200087c565b9050919050565b6000819050919050565b620008cd8362000890565b620008e5620008dc82620008b8565b84845462000826565b825550505050565b600090565b620008fc620008ed565b62000909818484620008c2565b505050565b5b81811015620009315762000925600082620008f2565b6001810190506200090f565b5050565b601f82111562000980576200094a81620007f4565b620009558462000809565b8101602085101562000965578190505b6200097d620009748562000809565b8301826200090e565b50505b505050565b600082821c905092915050565b6000620009a56000198460080262000985565b1980831691505092915050565b6000620009c0838362000992565b9150826002028217905092915050565b620009db8262000756565b67ffffffffffffffff811115620009f757620009f662000761565b5b62000a038254620007bf565b62000a1082828562000935565b600060209050601f83116001811462000a48576000841562000a33578287015190505b62000a3f8582620009b2565b86555062000aaf565b601f19841662000a5886620007f4565b60005b8281101562000a825784890151825560018201915060208501945060208101905062000a5b565b8683101562000aa2578489015162000a9e601f89168262000992565b8355505b6001600288020188555050505b505050505050565b600082825260208201905092915050565b60005b8381101562000ae857808201518184015260208101905062000acb565b60008484015250505050565b6000601f19601f8301169050919050565b600062000b128262000756565b62000b1e818562000ab7565b935062000b3081856020860162000ac8565b62000b3b8162000af4565b840191505092915050565b6000602082019050818103600083015262000b62818462000b05565b905092915050565b613a008062000b7a6000396000f3fe608060405234801561001057600080fd5b506004361061010b5760003560e01c80636352211e116100a2578063b187301f11610071578063b187301f146102b6578063b88d4fde146102e6578063c575757a14610302578063c87b56dd14610332578063e985e9c5146103625761010b565b80636352211e1461021c57806370a082311461024c57806395d89b411461027c578063a22cb4651461029a5761010b565b806314f710fe116100de57806314f710fe146101aa57806323b872dd146101b45780632de38d68146101d057806342842e0e146102005761010b565b806301ffc9a71461011057806306fdde0314610140578063081812fc1461015e578063095ea7b31461018e575b600080fd5b61012a6004803603810190610125919061231d565b610392565b6040516101379190612365565b60405180910390f35b610148610474565b6040516101559190612410565b60405180910390f35b61017860048036038101906101739190612468565b610506565b60405161018591906124d6565b60405180910390f35b6101a860048036038101906101a3919061251d565b61054c565b005b6101b2610663565b005b6101ce60048036038101906101c9919061255d565b61084a565b005b6101ea60048036038101906101e59190612468565b6108aa565b6040516101f79190612410565b60405180910390f35b61021a6004803603810190610215919061255d565b6109a2565b005b61023660048036038101906102319190612468565b6109c2565b60405161024391906124d6565b60405180910390f35b610266600480360381019061026191906125b0565b610a48565b60405161027391906125ec565b60405180910390f35b610284610aff565b6040516102919190612410565b60405180910390f35b6102b460048036038101906102af9190612633565b610b91565b005b6102d060048036038101906102cb9190612468565b610ba7565b6040516102dd9190612410565b60405180910390f35b61030060048036038101906102fb91906127a8565b610c9f565b005b61031c60048036038101906103179190612468565b610d01565b6040516103299190612410565b60405180910390f35b61034c60048036038101906103479190612468565b610df9565b6040516103599190612410565b60405180910390f35b61037c6004803603810190610377919061282b565b610f0b565b6040516103899190612365565b60405180910390f35b60007f80ac58cd000000000000000000000000000000000000000000000000000000007bffffffffffffffffffffffffffffffffffffffffffffffffffffffff1916827bffffffffffffffffffffffffffffffffffffffffffffffffffffffff1916148061045d57507f5b5e139f000000000000000000000000000000000000000000000000000000007bffffffffffffffffffffffffffffffffffffffffffffffffffffffff1916827bffffffffffffffffffffffffffffffffffffffffffffffffffffffff1916145b8061046d575061046c82611038565b5b9050919050565b6060600080546104839061289a565b80601f01602080910402602001604051908101604052809291908181526020018280546104af9061289a565b80156104fc5780601f106104d1576101008083540402835291602001916104fc565b820191906000526020600020905b8154815290600101906020018083116104df57829003601f168201915b5050505050905090565b6000610511826110a2565b6004600083815260200190815260200160002060009054906101000a900473ffffffffffffffffffffffffffffffffffffffff169050919050565b6000610557826109c2565b90508073ffffffffffffffffffffffffffffffffffffffff168373ffffffffffffffffffffffffffffffffffffffff16036105c7576040517f08c379a00000000000000000000000000000000000000000000000000000000081526004016105be9061293d565b60405180910390fd5b8073ffffffffffffffffffffffffffffffffffffffff166105e66110ed565b73ffffffffffffffffffffffffffffffffffffffff16148061061557506106148161060f6110ed565b610f0b565b5b610654576040517f08c379a000000000000000000000000000000000000000000000000000000000815260040161064b906129cf565b60405180910390fd5b61065e83836110f5565b505050565b600061066f60076111ae565b9050600061067c826108aa565b9050600061068983610ba7565b9050600061069684610d01565b905060008383836040516020016106af93929190612a2b565b604051602081830303815290604052905060006008826040516020016106d6929190612b40565b6040516020818303038152906040529050600061071b836106f6846111bc565b604051602001610707929190612cc5565b6040516020818303038152906040526111bc565b90506000816040516020016107309190612d56565b604051602081830303815290604052905061077f6040518060400160405280601581526020017f0a2d2d2d2d2d2d2d2d2d2d2d2d2d2d2d2d2d2d2d2d0000000000000000000000815250610f9f565b61078881610f9f565b6107c66040518060400160405280601581526020017f2d2d2d2d2d2d2d2d2d2d2d2d2d2d2d2d2d2d2d2d0a0000000000000000000000815250610f9f565b6107d03389611353565b6107da8882611371565b6107e460076113de565b6108076040518060600160405280602581526020016139666025913989336113f4565b7febb98688741ffa4c7589bf325de30cf7becb63de567842e1ccdb6cb949fdc82c3389604051610838929190612d78565b60405180910390a15050505050505050565b61085b6108556110ed565b82611493565b61089a576040517f08c379a000000000000000000000000000000000000000000000000000000000815260040161089190612e13565b60405180910390fd5b6108a5838383611528565b505050565b606060006108de6108ba84611821565b6040516020016108ca9190612e7f565b6040516020818303038152906040526118ef565b9050600980549050816108f19190612ed0565b90506009818154811061090757610906612f01565b5b90600052602060002001805461091c9061289a565b80601f01602080910402602001604051908101604052809291908181526020018280546109489061289a565b80156109955780601f1061096a57610100808354040283529160200191610995565b820191906000526020600020905b81548152906001019060200180831161097857829003601f168201915b5050505050915050919050565b6109bd83838360405180602001604052806000815250610c9f565b505050565b6000806109ce83611922565b9050600073ffffffffffffffffffffffffffffffffffffffff168173ffffffffffffffffffffffffffffffffffffffff1603610a3f576040517f08c379a0000000000000000000000000000000000000000000000000000000008152600401610a3690612f7c565b60405180910390fd5b80915050919050565b60008073ffffffffffffffffffffffffffffffffffffffff168273ffffffffffffffffffffffffffffffffffffffff1603610ab8576040517f08c379a0000000000000000000000000000000000000000000000000000000008152600401610aaf9061300e565b60405180910390fd5b600360008373ffffffffffffffffffffffffffffffffffffffff1673ffffffffffffffffffffffffffffffffffffffff168152602001908152602001600020549050919050565b606060018054610b0e9061289a565b80601f0160208091040260200160405190810160405280929190818152602001828054610b3a9061289a565b8015610b875780601f10610b5c57610100808354040283529160200191610b87565b820191906000526020600020905b815481529060010190602001808311610b6a57829003601f168201915b5050505050905090565b610ba3610b9c6110ed565b838361195f565b5050565b60606000610bdb610bb784611821565b604051602001610bc7919061307a565b6040516020818303038152906040526118ef565b9050600a8054905081610bee9190612ed0565b9050600a8181548110610c0457610c03612f01565b5b906000526020600020018054610c199061289a565b80601f0160208091040260200160405190810160405280929190818152602001828054610c459061289a565b8015610c925780601f10610c6757610100808354040283529160200191610c92565b820191906000526020600020905b815481529060010190602001808311610c7557829003601f168201915b5050505050915050919050565b610cb0610caa6110ed565b83611493565b610cef576040517f08c379a0000000000000000000000000000000000000000000000000000000008152600401610ce690612e13565b60405180910390fd5b610cfb84848484611acb565b50505050565b60606000610d35610d1184611821565b604051602001610d2191906130e8565b6040516020818303038152906040526118ef565b9050600b8054905081610d489190612ed0565b9050600b8181548110610d5e57610d5d612f01565b5b906000526020600020018054610d739061289a565b80601f0160208091040260200160405190810160405280929190818152602001828054610d9f9061289a565b8015610dec5780601f10610dc157610100808354040283529160200191610dec565b820191906000526020600020905b815481529060010190602001808311610dcf57829003601f168201915b5050505050915050919050565b6060610e04826110a2565b6000600660008481526020019081526020016000208054610e249061289a565b80601f0160208091040260200160405190810160405280929190818152602001828054610e509061289a565b8015610e9d5780601f10610e7257610100808354040283529160200191610e9d565b820191906000526020600020905b815481529060010190602001808311610e8057829003601f168201915b505050505090506000610eae611b27565b90506000815103610ec3578192505050610f06565b600082511115610ef8578082604051602001610ee092919061310a565b60405160208183030381529060405292505050610f06565b610f0184611b3e565b925050505b919050565b6000600560008473ffffffffffffffffffffffffffffffffffffffff1673ffffffffffffffffffffffffffffffffffffffff16815260200190815260200160002060008373ffffffffffffffffffffffffffffffffffffffff1673ffffffffffffffffffffffffffffffffffffffff16815260200190815260200160002060009054906101000a900460ff16905092915050565b61103581604051602401610fb39190612410565b6040516020818303038152906040527f41304fac000000000000000000000000000000000000000000000000000000007bffffffffffffffffffffffffffffffffffffffffffffffffffffffff19166020820180517bffffffffffffffffffffffffffffffffffffffffffffffffffffffff8381831617835250505050611ba6565b50565b60007f01ffc9a7000000000000000000000000000000000000000000000000000000007bffffffffffffffffffffffffffffffffffffffffffffffffffffffff1916827bffffffffffffffffffffffffffffffffffffffffffffffffffffffff1916149050919050565b6110ab81611bcf565b6110ea576040517f08c379a00000000000000000000000000000000000000000000000000000000081526004016110e190612f7c565b60405180910390fd5b50565b600033905090565b816004600083815260200190815260200160002060006101000a81548173ffffffffffffffffffffffffffffffffffffffff021916908373ffffffffffffffffffffffffffffffffffffffff160217905550808273ffffffffffffffffffffffffffffffffffffffff16611168836109c2565b73ffffffffffffffffffffffffffffffffffffffff167f8c5be1e5ebec7d5bd14f71427d1e84f3dd0314c0f7b2291e5b200ac8c7c3b92560405160405180910390a45050565b600081600001549050919050565b6060600082519050600081036111e4576040518060200160405280600081525091505061134e565b600060036002836111f5919061315d565b6111ff9190613191565b600461120b91906131c2565b9050600060208261121c919061315d565b67ffffffffffffffff8111156112355761123461267d565b5b6040519080825280601f01601f1916602001820160405280156112675781602001600182028036833780820191505090505b509050600060405180606001604052806040815260200161398b604091399050600181016020830160005b8681101561130b5760038101905062ffffff818a015116603f8160121c168401518060081b905060ff603f83600c1c1686015116810190508060081b905060ff603f8360061c1686015116810190508060081b905060ff603f831686015116810190508060e01b90508084526004840193505050611292565b506003860660018114611325576002811461133557611340565b613d3d60f01b6002830352611340565b603d60f81b60018303525b508484525050819450505050505b919050565b61136d828260405180602001604052806000815250611c10565b5050565b61137a82611bcf565b6113b9576040517f08c379a00000000000000000000000000000000000000000000000000000000081526004016113b090613276565b60405180910390fd5b806006600084815260200190815260200160002090816113d9919061342d565b505050565b6001816000016000828254019250508190555050565b61148e83838360405160240161140c939291906134ff565b6040516020818303038152906040527f1c7ec448000000000000000000000000000000000000000000000000000000007bffffffffffffffffffffffffffffffffffffffffffffffffffffffff19166020820180517bffffffffffffffffffffffffffffffffffffffffffffffffffffffff8381831617835250505050611ba6565b505050565b60008061149f836109c2565b90508073ffffffffffffffffffffffffffffffffffffffff168473ffffffffffffffffffffffffffffffffffffffff1614806114e157506114e08185610f0b565b5b8061151f57508373ffffffffffffffffffffffffffffffffffffffff1661150784610506565b73ffffffffffffffffffffffffffffffffffffffff16145b91505092915050565b8273ffffffffffffffffffffffffffffffffffffffff16611548826109c2565b73ffffffffffffffffffffffffffffffffffffffff161461159e576040517f08c379a0000000000000000000000000000000000000000000000000000000008152600401611595906135af565b60405180910390fd5b600073ffffffffffffffffffffffffffffffffffffffff168273ffffffffffffffffffffffffffffffffffffffff160361160d576040517f08c379a000000000000000000000000000000000000000000000000000000000815260040161160490613641565b60405180910390fd5b61161a8383836001611c6b565b8273ffffffffffffffffffffffffffffffffffffffff1661163a826109c2565b73ffffffffffffffffffffffffffffffffffffffff1614611690576040517f08c379a0000000000000000000000000000000000000000000000000000000008152600401611687906135af565b60405180910390fd5b6004600082815260200190815260200160002060006101000a81549073ffffffffffffffffffffffffffffffffffffffff02191690556001600360008573ffffffffffffffffffffffffffffffffffffffff1673ffffffffffffffffffffffffffffffffffffffff168152602001908152602001600020600082825403925050819055506001600360008473ffffffffffffffffffffffffffffffffffffffff1673ffffffffffffffffffffffffffffffffffffffff16815260200190815260200160002060008282540192505081905550816002600083815260200190815260200160002060006101000a81548173ffffffffffffffffffffffffffffffffffffffff021916908373ffffffffffffffffffffffffffffffffffffffff160217905550808273ffffffffffffffffffffffffffffffffffffffff168473ffffffffffffffffffffffffffffffffffffffff167fddf252ad1be2c89b69c2b068fc378daa952ba7f163c4a11628f55a4df523b3ef60405160405180910390a461181c8383836001611d91565b505050565b60606000600161183084611d97565b01905060008167ffffffffffffffff81111561184f5761184e61267d565b5b6040519080825280601f01601f1916602001820160405280156118815781602001600182028036833780820191505090505b509050600082602001820190505b6001156118e4578080600190039150507f3031323334353637383961626364656600000000000000000000000000000000600a86061a8153600a85816118d8576118d7612ea1565b5b0494506000850361188f575b819350505050919050565b6000816040516020016119029190613661565b6040516020818303038152906040528051906020012060001c9050919050565b60006002600083815260200190815260200160002060009054906101000a900473ffffffffffffffffffffffffffffffffffffffff169050919050565b8173ffffffffffffffffffffffffffffffffffffffff168373ffffffffffffffffffffffffffffffffffffffff16036119cd576040517f08c379a00000000000000000000000000000000000000000000000000000000081526004016119c4906136c4565b60405180910390fd5b80600560008573ffffffffffffffffffffffffffffffffffffffff1673ffffffffffffffffffffffffffffffffffffffff16815260200190815260200160002060008473ffffffffffffffffffffffffffffffffffffffff1673ffffffffffffffffffffffffffffffffffffffff16815260200190815260200160002060006101000a81548160ff0219169083151502179055508173ffffffffffffffffffffffffffffffffffffffff168373ffffffffffffffffffffffffffffffffffffffff167f17307eab39ab6107e8899845ad3d59bd9653f200f220920489ca2b5937696c3183604051611abe9190612365565b60405180910390a3505050565b611ad6848484611528565b611ae284848484611eea565b611b21576040517f08c379a0000000000000000000000000000000000000000000000000000000008152600401611b1890613756565b60405180910390fd5b50505050565b606060405180602001604052806000815250905090565b6060611b49826110a2565b6000611b53611b27565b90506000815111611b735760405180602001604052806000815250611b9e565b80611b7d84611821565b604051602001611b8e92919061310a565b6040516020818303038152906040525b915050919050565b60008151905060006a636f6e736f6c652e6c6f679050602083016000808483855afa5050505050565b60008073ffffffffffffffffffffffffffffffffffffffff16611bf183611922565b73ffffffffffffffffffffffffffffffffffffffff1614159050919050565b611c1a8383612071565b611c276000848484611eea565b611c66576040517f08c379a0000000000000000000000000000000000000000000000000000000008152600401611c5d90613756565b60405180910390fd5b505050565b6001811115611d8b57600073ffffffffffffffffffffffffffffffffffffffff168473ffffffffffffffffffffffffffffffffffffffff1614611cff5780600360008673ffffffffffffffffffffffffffffffffffffffff1673ffffffffffffffffffffffffffffffffffffffff1681526020019081526020016000206000828254611cf79190613776565b925050819055505b600073ffffffffffffffffffffffffffffffffffffffff168373ffffffffffffffffffffffffffffffffffffffff1614611d8a5780600360008573ffffffffffffffffffffffffffffffffffffffff1673ffffffffffffffffffffffffffffffffffffffff1681526020019081526020016000206000828254611d82919061315d565b925050819055505b5b50505050565b50505050565b600080600090507a184f03e93ff9f4daa797ed6e38ed64bf6a1f0100000000000000008310611df5577a184f03e93ff9f4daa797ed6e38ed64bf6a1f0100000000000000008381611deb57611dea612ea1565b5b0492506040810190505b6d04ee2d6d415b85acef81000000008310611e32576d04ee2d6d415b85acef81000000008381611e2857611e27612ea1565b5b0492506020810190505b662386f26fc100008310611e6157662386f26fc100008381611e5757611e56612ea1565b5b0492506010810190505b6305f5e1008310611e8a576305f5e1008381611e8057611e7f612ea1565b5b0492506008810190505b6127108310611eaf576127108381611ea557611ea4612ea1565b5b0492506004810190505b60648310611ed25760648381611ec857611ec7612ea1565b5b0492506002810190505b600a8310611ee1576001810190505b80915050919050565b6000611f0b8473ffffffffffffffffffffffffffffffffffffffff1661228e565b15612064578373ffffffffffffffffffffffffffffffffffffffff1663150b7a02611f346110ed565b8786866040518563ffffffff1660e01b8152600401611f5694939291906137ff565b6020604051808303816000875af1925050508015611f9257506040513d601f19601f82011682018060405250810190611f8f9190613860565b60015b612014573d8060008114611fc2576040519150601f19603f3d011682016040523d82523d6000602084013e611fc7565b606091505b50600081510361200c576040517f08c379a000000000000000000000000000000000000000000000000000000000815260040161200390613756565b60405180910390fd5b805181602001fd5b63150b7a0260e01b7bffffffffffffffffffffffffffffffffffffffffffffffffffffffff1916817bffffffffffffffffffffffffffffffffffffffffffffffffffffffff191614915050612069565b600190505b949350505050565b600073ffffffffffffffffffffffffffffffffffffffff168273ffffffffffffffffffffffffffffffffffffffff16036120e0576040517f08c379a00000000000000000000000000000000000000000000000000000000081526004016120d7906138d9565b60405180910390fd5b6120e981611bcf565b15612129576040517f08c379a000000000000000000000000000000000000000000000000000000000815260040161212090613945565b60405180910390fd5b612137600083836001611c6b565b61214081611bcf565b15612180576040517f08c379a000000000000000000000000000000000000000000000000000000000815260040161217790613945565b60405180910390fd5b6001600360008473ffffffffffffffffffffffffffffffffffffffff1673ffffffffffffffffffffffffffffffffffffffff16815260200190815260200160002060008282540192505081905550816002600083815260200190815260200160002060006101000a81548173ffffffffffffffffffffffffffffffffffffffff021916908373ffffffffffffffffffffffffffffffffffffffff160217905550808273ffffffffffffffffffffffffffffffffffffffff16600073ffffffffffffffffffffffffffffffffffffffff167fddf252ad1be2c89b69c2b068fc378daa952ba7f163c4a11628f55a4df523b3ef60405160405180910390a461228a600083836001611d91565b5050565b6000808273ffffffffffffffffffffffffffffffffffffffff163b119050919050565b6000604051905090565b600080fd5b600080fd5b60007fffffffff0000000000000000000000000000000000000000000000000000000082169050919050565b6122fa816122c5565b811461230557600080fd5b50565b600081359050612317816122f1565b92915050565b600060208284031215612333576123326122bb565b5b600061234184828501612308565b91505092915050565b60008115159050919050565b61235f8161234a565b82525050565b600060208201905061237a6000830184612356565b92915050565b600081519050919050565b600082825260208201905092915050565b60005b838110156123ba57808201518184015260208101905061239f565b60008484015250505050565b6000601f19601f8301169050919050565b60006123e282612380565b6123ec818561238b565b93506123fc81856020860161239c565b612405816123c6565b840191505092915050565b6000602082019050818103600083015261242a81846123d7565b905092915050565b6000819050919050565b61244581612432565b811461245057600080fd5b50565b6000813590506124628161243c565b92915050565b60006020828403121561247e5761247d6122bb565b5b600061248c84828501612453565b91505092915050565b600073ffffffffffffffffffffffffffffffffffffffff82169050919050565b60006124c082612495565b9050919050565b6124d0816124b5565b82525050565b60006020820190506124eb60008301846124c7565b92915050565b6124fa816124b5565b811461250557600080fd5b50565b600081359050612517816124f1565b92915050565b60008060408385031215612534576125336122bb565b5b600061254285828601612508565b925050602061255385828601612453565b9150509250929050565b600080600060608486031215612576576125756122bb565b5b600061258486828701612508565b935050602061259586828701612508565b92505060406125a686828701612453565b9150509250925092565b6000602082840312156125c6576125c56122bb565b5b60006125d484828501612508565b91505092915050565b6125e681612432565b82525050565b600060208201905061260160008301846125dd565b92915050565b6126108161234a565b811461261b57600080fd5b50565b60008135905061262d81612607565b92915050565b6000806040838503121561264a576126496122bb565b5b600061265885828601612508565b92505060206126698582860161261e565b9150509250929050565b600080fd5b600080fd5b7f4e487b7100000000000000000000000000000000000000000000000000000000600052604160045260246000fd5b6126b5826123c6565b810181811067ffffffffffffffff821117156126d4576126d361267d565b5b80604052505050565b60006126e76122b1565b90506126f382826126ac565b919050565b600067ffffffffffffffff8211156127135761271261267d565b5b61271c826123c6565b9050602081019050919050565b82818337600083830152505050565b600061274b612746846126f8565b6126dd565b90508281526020810184848401111561276757612766612678565b5b612772848285612729565b509392505050565b600082601f83011261278f5761278e612673565b5b813561279f848260208601612738565b91505092915050565b600080600080608085870312156127c2576127c16122bb565b5b60006127d087828801612508565b94505060206127e187828801612508565b93505060406127f287828801612453565b925050606085013567ffffffffffffffff811115612813576128126122c0565b5b61281f8782880161277a565b91505092959194509250565b60008060408385031215612842576128416122bb565b5b600061285085828601612508565b925050602061286185828601612508565b9150509250929050565b7f4e487b7100000000000000000000000000000000000000000000000000000000600052602260045260246000fd5b600060028204905060018216806128b257607f821691505b6020821081036128c5576128c461286b565b5b50919050565b7f4552433732313a20617070726f76616c20746f2063757272656e74206f776e6560008201527f7200000000000000000000000000000000000000000000000000000000000000602082015250565b600061292760218361238b565b9150612932826128cb565b604082019050919050565b600060208201905081810360008301526129568161291a565b9050919050565b7f4552433732313a20617070726f76652063616c6c6572206973206e6f7420746f60008201527f6b656e206f776e6572206f7220617070726f76656420666f7220616c6c000000602082015250565b60006129b9603d8361238b565b91506129c48261295d565b604082019050919050565b600060208201905081810360008301526129e8816129ac565b9050919050565b600081905092915050565b6000612a0582612380565b612a0f81856129ef565b9350612a1f81856020860161239c565b80840191505092915050565b6000612a3782866129fa565b9150612a4382856129fa565b9150612a4f82846129fa565b9150819050949350505050565b60008190508160005260206000209050919050565b60008154612a7e8161289a565b612a8881866129ef565b94506001821660008114612aa35760018114612ab857612aeb565b60ff1983168652811515820286019350612aeb565b612ac185612a5c565b60005b83811015612ae357815481890152600182019150602081019050612ac4565b838801955050505b50505092915050565b7f3c2f746578743e3c2f7376673e00000000000000000000000000000000000000600082015250565b6000612b2a600d836129ef565b9150612b3582612af4565b600d82019050919050565b6000612b4c8285612a71565b9150612b5882846129fa565b9150612b6382612b1d565b91508190509392505050565b7f7b226e616d65223a202200000000000000000000000000000000000000000000600082015250565b6000612ba5600a836129ef565b9150612bb082612b6f565b600a82019050919050565b7f222c20226465736372697074696f6e223a20224120686967686c79206163636c60008201527f61696d656420636f6c6c656374696f6e206f6620737175617265732e222c202260208201527f696d616765223a2022646174613a696d6167652f7376672b786d6c3b6261736560408201527f36342c0000000000000000000000000000000000000000000000000000000000606082015250565b6000612c636063836129ef565b9150612c6e82612bbb565b606382019050919050565b7f227d000000000000000000000000000000000000000000000000000000000000600082015250565b6000612caf6002836129ef565b9150612cba82612c79565b600282019050919050565b6000612cd082612b98565b9150612cdc82856129fa565b9150612ce782612c56565b9150612cf382846129fa565b9150612cfe82612ca2565b91508190509392505050565b7f646174613a6170706c69636174696f6e2f6a736f6e3b6261736536342c000000600082015250565b6000612d40601d836129ef565b9150612d4b82612d0a565b601d82019050919050565b6000612d6182612d33565b9150612d6d82846129fa565b915081905092915050565b6000604082019050612d8d60008301856124c7565b612d9a60208301846125dd565b9392505050565b7f4552433732313a2063616c6c6572206973206e6f7420746f6b656e206f776e6560008201527f72206f7220617070726f76656400000000000000000000000000000000000000602082015250565b6000612dfd602d8361238b565b9150612e0882612da1565b604082019050919050565b60006020820190508181036000830152612e2c81612df0565b9050919050565b7f46495253545f574f524400000000000000000000000000000000000000000000600082015250565b6000612e69600a836129ef565b9150612e7482612e33565b600a82019050919050565b6000612e8a82612e5c565b9150612e9682846129fa565b915081905092915050565b7f4e487b7100000000000000000000000000000000000000000000000000000000600052601260045260246000fd5b6000612edb82612432565b9150612ee683612432565b925082612ef657612ef5612ea1565b5b828206905092915050565b7f4e487b7100000000000000000000000000000000000000000000000000000000600052603260045260246000fd5b7f4552433732313a20696e76616c696420746f6b656e2049440000000000000000600082015250565b6000612f6660188361238b565b9150612f7182612f30565b602082019050919050565b60006020820190508181036000830152612f9581612f59565b9050919050565b7f4552433732313a2061646472657373207a65726f206973206e6f74206120766160008201527f6c6964206f776e65720000000000000000000000000000000000000000000000602082015250565b6000612ff860298361238b565b915061300382612f9c565b604082019050919050565b6000602082019050818103600083015261302781612feb565b9050919050565b7f5345434f4e445f574f5244000000000000000000000000000000000000000000600082015250565b6000613064600b836129ef565b915061306f8261302e565b600b82019050919050565b600061308582613057565b915061309182846129fa565b915081905092915050565b7f54484952445f574f524400000000000000000000000000000000000000000000600082015250565b60006130d2600a836129ef565b91506130dd8261309c565b600a82019050919050565b60006130f3826130c5565b91506130ff82846129fa565b915081905092915050565b600061311682856129fa565b915061312282846129fa565b91508190509392505050565b7f4e487b7100000000000000000000000000000000000000000000000000000000600052601160045260246000fd5b600061316882612432565b915061317383612432565b925082820190508082111561318b5761318a61312e565b5b92915050565b600061319c82612432565b91506131a783612432565b9250826131b7576131b6612ea1565b5b828204905092915050565b60006131cd82612432565b91506131d883612432565b92508282026131e681612432565b915082820484148315176131fd576131fc61312e565b5b5092915050565b7f45524337323155524953746f726167653a2055524920736574206f66206e6f6e60008201527f6578697374656e7420746f6b656e000000000000000000000000000000000000602082015250565b6000613260602e8361238b565b915061326b82613204565b604082019050919050565b6000602082019050818103600083015261328f81613253565b9050919050565b60006020601f8301049050919050565b600082821b905092915050565b6000600883026132e37fffffffffffffffffffffffffffffffffffffffffffffffffffffffffffffffff826132a6565b6132ed86836132a6565b95508019841693508086168417925050509392505050565b6000819050919050565b600061332a61332561332084612432565b613305565b612432565b9050919050565b6000819050919050565b6133448361330f565b61335861335082613331565b8484546132b3565b825550505050565b600090565b61336d613360565b61337881848461333b565b505050565b5b8181101561339c57613391600082613365565b60018101905061337e565b5050565b601f8211156133e1576133b281612a5c565b6133bb84613296565b810160208510156133ca578190505b6133de6133d685613296565b83018261337d565b50505b505050565b600082821c905092915050565b6000613404600019846008026133e6565b1980831691505092915050565b600061341d83836133f3565b9150826002028217905092915050565b61343682612380565b67ffffffffffffffff81111561344f5761344e61267d565b5b613459825461289a565b6134648282856133a0565b600060209050601f8311600181146134975760008415613485578287015190505b61348f8582613411565b8655506134f7565b601f1984166134a586612a5c565b60005b828110156134cd578489015182556001820191506020850194506020810190506134a8565b868310156134ea57848901516134e6601f8916826133f3565b8355505b6001600288020188555050505b505050505050565b6000606082019050818103600083015261351981866123d7565b905061352860208301856125dd565b61353560408301846124c7565b949350505050565b7f4552433732313a207472616e736665722066726f6d20696e636f72726563742060008201527f6f776e6572000000000000000000000000000000000000000000000000000000602082015250565b600061359960258361238b565b91506135a48261353d565b604082019050919050565b600060208201905081810360008301526135c88161358c565b9050919050565b7f4552433732313a207472616e7366657220746f20746865207a65726f2061646460008201527f7265737300000000000000000000000000000000000000000000000000000000602082015250565b600061362b60248361238b565b9150613636826135cf565b604082019050919050565b6000602082019050818103600083015261365a8161361e565b9050919050565b600061366d82846129fa565b915081905092915050565b7f4552433732313a20617070726f766520746f2063616c6c657200000000000000600082015250565b60006136ae60198361238b565b91506136b982613678565b602082019050919050565b600060208201905081810360008301526136dd816136a1565b9050919050565b7f4552433732313a207472616e7366657220746f206e6f6e20455243373231526560008201527f63656976657220696d706c656d656e7465720000000000000000000000000000602082015250565b600061374060328361238b565b915061374b826136e4565b604082019050919050565b6000602082019050818103600083015261376f81613733565b9050919050565b600061378182612432565b915061378c83612432565b92508282039050818111156137a4576137a361312e565b5b92915050565b600081519050919050565b600082825260208201905092915050565b60006137d1826137aa565b6137db81856137b5565b93506137eb81856020860161239c565b6137f4816123c6565b840191505092915050565b600060808201905061381460008301876124c7565b61382160208301866124c7565b61382e60408301856125dd565b818103606083015261384081846137c6565b905095945050505050565b60008151905061385a816122f1565b92915050565b600060208284031215613876576138756122bb565b5b60006138848482850161384b565b91505092915050565b7f4552433732313a206d696e7420746f20746865207a65726f2061646472657373600082015250565b60006138c360208361238b565b91506138ce8261388d565b602082019050919050565b600060208201905081810360008301526138f2816138b6565b9050919050565b7f4552433732313a20746f6b656e20616c7265616479206d696e74656400000000600082015250565b600061392f601c8361238b565b915061393a826138f9565b602082019050919050565b6000602082019050818103600083015261395e81613922565b905091905056fe416e204e465420772f20494420257320686173206265656e206d696e74656420746f2025734142434445464748494a4b4c4d4e4f505152535455565758595a6162636465666768696a6b6c6d6e6f707172737475767778797a303132333435363738392b2fa2646970667358221220b08b87b6dfa7ef8adf092c658029fcc7773b9f2086f3db2a2146403376c72eb964736f6c634300081100333c73766720786d6c6e733d27687474703a2f2f7777772e77332e6f72672f323030302f73766727207072657365727665417370656374526174696f3d27784d696e594d696e206d656574272076696577426f783d273020302033353020333530273e3c7374796c653e2e62617365207b2066696c6c3a2077686974653b20666f6e742d66616d696c793a2073657269663b20666f6e742d73697a653a20323470783b207d3c2f7374796c653e3c726563742077696474683d273130302527206865696768743d2731303025272066696c6c3d27626c61636b27202f3e3c7465787420783d273530252720793d273530252720636c6173733d27626173652720646f6d696e616e742d626173656c696e653d276d6964646c652720746578742d616e63686f723d276d6964646c65273e",
  "linkReferences": {},
  "deployedLinkReferences": {}
}